:100000000EC028C027C026C025C0A1C023C022C062
:1000100021C020C01FC01EC01DC01CC01BC0112499
:100020001FBECFE5D2E0DEBFCDBF10E0A0E6B0E05E
:10003000E6E3F2E002C005900D92A237B107D9F7CE
:1000400010E0A2E7B0E001C01D92A837B107E1F7C8
:10005000EED0EFC0D5CF369A3699FECF24B135B168
:10006000932F80E0AC01420F511DCA0108951BBCC3
:10007000C19AC0988BBD08951BBCC198C09A8BBD16
:1000800008951BBCC19AC09A0895CF93C6B3E3DF0D
:100090006C2F6870782F892FCF910895FB01DC01B8
:1000A0008C91258181111CC0223018F02330B1F5CC
:1000B00007C083E085831182128281E080830895E6
:1000C00021812F5F2183838194810196948383838F
:1000D000233320F1118282818F3000F58F5F1AC0A7
:1000E000213049F0D8F02430C8F481E08583808342
:1000F00011828EE00FC083819481009769F0218185
:100100002F5F2183019794838383233338F01182F7
:100110008281815082830895158220830895FC0195
:100120008581813031F088F0823079F0833071F44C
:1001300006C0E281F0E0EE59FF4F80819DCFE28161
:10014000F0E0EE59FF4F808192CF9BCF08951F9230
:100150000F920FB60F9211242F933F934F935F93FB
:100160006F937F938F939F93AF93BF93EF93FF937F
:10017000CF93DF9300D01F92CDB7DEB786DF6983C0
:100180007A838B8362E770E0CE01019687DF8091EE
:100190007200882331F081E08093720082E790E062
:1001A000BEDF0F900F900F90DF91CF91FF91EF91F5
:1001B000BF91AF919F918F917F916F915F914F917F
:1001C0003F912F910F900FBE0F901F90189581E0D7
:1001D0008BBD8FE98DBD80B7836080BF8CB5806695
:1001E0008CBD87B5826087BD81E28A95F1F70000FA
:1001F00007B400FEFDCF87B5846087BD0895389AA7
:1002000086B1836086B9379A0895C39A87B38361AC
:1002100087BB0895FADFDBDFF2DF109277001092E0
:100220007600109275001092720078940895F2DFB3
:06023000FFCFF894FFCFA0
:10023600FF969696969696969696969696969696EF
:02024600960020
:00000001FF
